:020000040800F2
:1000000050040020D9010008F31000082D1000084A
:10001000F1100008A5050008011400080000000008
:10002000000000000000000000000000F7100008C1
:10003000A705000800000000F5100008F9100008EE
:10004000F3010008F3010008F3010008F3010008C0
:10005000F3010008F3010008F3010008F3010008B0
:10006000F3010008F3010008F3010008F3010008A0
:10007000F3010008F3010008F3010008F301000890
:10008000F3010008F3010008F3010008F301000880
:10009000F3010008F3010008F3010008F301000870
:1000A000F3010008F3010008F3010008F301000860
:1000B000F3010008F3010008F3010008F301000850
:1000C000F3010008F3010008F3010008F301000840
:1000D000F3010008F3010008F3010008F301000830
:1000E000F3010008F3010008F3010008F301000820
:1000F000F3010008F3010008F3010008F301000810
:10010000F3010008F3010008F3010008F3010008FF
:10011000F3010008F3010008F3010008F3010008EF
:10012000F3010008F3010008F3010008F3010008DF
:10013000F30100080000000000000000F3010008C7
:10014000F3010008F3010008F3010008F3010008BF
:10015000F3010008F3010008F3010008F3010008AF
:10016000F3010008F3010008F3010008F30100089F
:10017000F3010008F3010008F3010008000000008B
:1001800000000000F3010008000000000000000073
:10019000F30100080000000000000000F301000867
:1001A000000000000000000000000000F301000853
:1001B000F3010008F3010008F3010008F30100084F
:1001C000F3010008DFF80CD000F0DAF9004800472E
:1001D00041140008500400200648804706480047A4
:1001E000FEE7FEE7FEE7FEE7FEE7FEE7FEE7FEE7E7
:1001F000FEE7FEE77D110008C50100082DE9F05F6C
:100200000546002092469B46884606468146402485
:100210001BE0284641464746224600F032F9534645
:100220005A46C01A914110D311461846224600F092
:1002300019F92D1A67EB01084F46224601200021CB
:1002400000F010F917EB00094E41201EA4F1010443
:10025000DFDC484631462A464346BDE8F09FD2B22D
:1002600001E000F8012B491EFBD270470022F6E79F
:1002700010B513460A4604461946FFF7F0FF20461C
:1002800010BD2DE9FE4F804681EA0300C00F0C46E9
:10029000009021F0004123F00045B8EB0200A94195
:1002A00005D24046214690461C460B46024623F0A6
:1002B0000040104347D0270DC7F30A00C3F30A518B
:1002C0000290401A019040286BDAC3F3130040F407
:1002D000801B0098924620B10023D2EB030A63EB07
:1002E0000B0B01985946C0F14002504600F0BAF895
:1002F00006460D4650465946019A00F0D2F810EBDA
:1003000008006141002487EA115284EAE7731A4326
:1003100040D0009A62B3019A012A4FEA075215DCD5
:10032000001B61EB02014FF0004202EA0752CDE9E7
:100330000042001C41F5801132462B4600F0D2F8F5
:1003400003B0BDE8F08F40462146F9E7001B61EBA2
:100350000201001C41F5801300185B412018A2F532
:10036000001747EB030140EAD570B6196D4111E063
:100370006D084FEA360645EAC0754FEA0752001B82
:1003800061EB0201001C41F5801149084FEA300081
:100390000019514132462B4603B0BDE8F04F00F042
:1003A00092B80098012240000023D0EB020263EBD8
:1003B000E073009821464FEAE074B8EB000061EB6F
:1003C0000401E9E783F000435BE781F0004158E76F
:1003D000C1F30A5210B5C1F3130140F2FF3341F4E7
:1003E00080119A4201DA002010BD40F233439A4254
:1003F000A2F2334203DC524200F043F810BD9040B9
:1004000010BD000030B5041E71F1000404DB4FF094
:100410000044404264EB0101141E73F1000405DB4B
:100420001C464FF00043524263EB04038B4208BF6B
:10043000824230BD30B5041E71F1000404DB4FF080
:100440000044404264EB0101141E73F1000405DB1B
:100450001C464FF00043524263EB0403994208BF2D
:10046000904230BD202A04DB203A00FA02F100203D
:1004700070479140C2F1200320FA03F319439040E2
:100480007047202A04DB203A21FA02F0002170474D
:1004900021FA02F3D040C2F12002914008431946EC
:1004A0007047202A06DBCB17203A41FA02F043EAD4
:1004B000E07306E041FA02F3D040C2F1200291401D
:1004C00008431946704710B5141E73F1000408DA8A
:1004D000401C41F1000192185B411A4301D120F008
:1004E000010010BD2DE9F04D92469B4611B1B1FAC5
:1004F00081F202E0B0FA80F220329046FFF7B2FFBC
:1005000004460F4640EA0A0041EA0B0153465A46A8
:10051000084313D0114653EA010019D0C8F1400234
:100520005046FFF7AEFF05460E4650465946424636
:10053000FFF798FF084305D0012004E02046394624
:10054000BDE8F08D0020054346EAE0762C433743B2
:100550000A986305E40AA0EB08000022FD0A44EAB9
:1005600047540A3002D500200146E9E70105101979
:100570006941DDE9084500196941BDE8F04DA2E790
:10058000064C074D06E0E06840F0010394E80700E0
:1005900098471034AC42F6D3FFF718FEA4150008B4
:1005A000C4150008FEE7704772B6FEE72DE9F84F64
:1005B00000224FF0010803254FF00F0E0B6808FAD8
:1005C00002F42340A3426ED14E68012E05D0022EC4
:1005D00003D0112E01D0122E12D186684FEA420CA0
:1005E00005FA0CF7BE43CF6807FA0CF7374387606C
:1005F0004668A6430C79C4F3001494403443446025
:10060000C668570005FA07FC8C6826EA0C06BC4051
:100610003443C4604C68022C01D0122C13D1D4088E
:1006200000EB8404A346D4F8209054074FEAD46A20
:100630000EFA0AF629EA06090E6906FA0AF646EAE9
:100640000906CBF8206006680C7926EA0C0604F04F
:100650000304BC40344304604C68E40060D5334C70
:10066000266846F480462660246822F0030604F4D7
:10067000804400942E4C3444A446D4F8084896078D
:10068000370F0EFA07F6B4432A4EB04201D10026C6
:100690001FE0294EB04201D101261AE0274EB04298
:1006A00002D1022615E03BE0254EB04201D10326DF
:1006B0000FE0244EB04201D104260AE0224EB0429F
:1006C00001D1052605E0214EB04201D1062600E009
:1006D0000726BE402643CCF808681D4E34684F6894
:1006E0009C43FF0300D51C433460194E361D34680B
:1006F0004F689C43BF0300D51C433460144E08363A
:1007000034684F689C43FF0200D51C433460104E90
:100710000C3634684F689C43BF0200D51C433460DC
:10072000521C102AFFF44AAFBDE8F88F443802404B
:100730000030014000000240000402400008024076
:10074000000C024000100240001402400018024059
:10075000003C014001488068704700000000002014
:1007600002488168027811448160704700000020CF
:100770000B4810B5016841F400710160016841F453
:1007800080610160016841F480710160032000F024
:1007900061F8002000F006F800F024F8002010BDF9
:1007A000003C024070B50D4D04464FF47A71287834
:1007B000B1FBF0F00A490968B1FBF0F000F0E4FA8F
:1007C00048B9102C07D200222146501E00F022F812
:1007D00000206C6070BD012070BD00000000002092
:1007E0000C0000200A4808B5016841F4804101600E
:1007F000006800F4804000900548001F016841F047
:1008000080510160006800F08050009008BD000039
:1008100044380240F0B40E4B1B680C46C3F302236D
:10082000C3F10705042D00D90425191D072901D29C
:10083000002300E0DB1E012606FA05F1491E2140D7
:1008400099409E40761E16403143F0BC00F0D9BD61
:100850000CED00E0064900F0070208684FF6FF03C0
:10086000184040EA0220034A104308607047000025
:100870000CED00E00000FA052DE9F0470E460500FA
:1008800065D0DFF81481D8F80000F7B200F00F004F
:10089000B04207D288F80070D8F8000000F00F00CE
:1008A000B04254D128683D4C810712D5400703D58A
:1008B000206840F4E05020602878000703D52068C5
:1008C00040F4604020602068A96820F0F0000843F0
:1008D00020602878C0072DD0304968680839012881
:1008E00012D0022813D0032811D0096889070029E3
:1008F0002DDA216821F0030101432160FFF72AFF6F
:10090000814641F2883A0EE009688903EFE70968F9
:100910008901ECE7FFF71EFFA0EB0901514502D961
:100920000320BDE8F0872068696800F00C00B0EB98
:10093000810FEFD1D8F80010404601F00F01B1420D
:1009400007D90770006800F00F00B04201D0012005
:10095000E7E72878400705D52068E96820F4E050EB
:10096000084320602878000706D52068296920F40C
:10097000604040EAC100206000F018F82168084A91
:10098000C1F30311515CC84006490860064800687D
:10099000FFF708FF0020C4E7003C0240083802408F
:1009A000941500080C00002004000020224810B517
:1009B000006810F00C02214815D02149042A11D0FA
:1009C0001D4C241F082A0FD00C2A0CD12268236842
:1009D00002F03F025B0221D52068C0F38810A0FB23
:1009E000010120E0084610BD2268236802F03F02A2
:1009F0005B0205D52068C0F38810A0FB010104E06C
:100A00002168C1F38811A1FB00010023FFF7F6FB69
:100A10002168C1F30141491C49000AE02168C1F382
:100A20008811A1FB00010023FFF7E8FB2168C1F357
:100A30000271B0FBF1F010BD083802400024F40050
:100A400040787D012DE9F84F0546DFF828B300789E
:100A5000ABF10407C007A7F1040451D0DBF8001084
:100A60005846C1F3810101290FD00168C1F381010A
:100A7000022902D13968490207D40068C0F3810015
:100A8000032809D13868400206D52068800337D58D
:100A90006868002872D033E06868B0F5803F10D0F5
:100AA000B0F5A02F206810D020F48030206020689E
:100AB00020F4802020606868A8B1FFF74BFE06464E
:100AC0000DE0206840F48030F4E740F4802020609E
:100AD000F7E700BFFFF73EFE801B642878D8206848
:100AE0008003F7D50CE0FFF735FE064605E000BFB2
:100AF000FFF730FE801B6428F0D820688003F7D40D
:100B00002878DFF8749280074FF0000A46D5DBF8AA
:100B10000010584611F00C0F0FD00168C1F381018D
:100B2000022902D13968490207D50068C0F3810063
:100B3000032809D13868400206D42068800715D5FB
:100B4000E86801281AD111E0E868C0B10120C9F8AD
:100B50000000FFF7FFFD064605E000BFFFF7FAFDC6
:100B6000801B0228BAD820688007F7D52068296939
:100B700020F0F80040EAC10020600FE0F7E0C9F87B
:100B800000A0FFF7E7FD064605E000BFFFF7E2FD26
:100B9000801B02281CD820688007F7D4287800071B
:100BA00027D5DFF8D0817548696908F16C0881B1F3
:100BB00001210160FFF7CEFD064604E0FFF7CAFD04
:100BC000801B022804D8D8F800008007F6D510E072
:100BD00089E0C0F800A0FFF7BDFD064605E000BFB4
:100BE000FFF7B8FD801B02287DD8D8F800008007E9
:100BF000F6D42878400769D55E484FF000083830B1
:100C00000068C0000BD45B483830016841F0805167
:100C1000016000684FF0010800F080500090584ECD
:100C20003068C00511D4306840F480703060FFF740
:100C300091FD009006E000BFFFF78CFD0099401A7F
:100C4000022850D83068C005F6D54A4EA8686836E4
:100C500001280FD00528306810D020F00100306046
:100C6000306820F004003060A868B8B1FFF772FD6A
:100C700000900FE0306840F00100F4E740F004001D
:100C80003060F7E7FFF766FD0099411A41F28830BE
:100C9000814264D830688007F4D50EE0FFF75AFD32
:100CA000009007E0FFF756FD0099411A41F28830A5
:100CB000814254D830688007F4D4B8F1000F05D0D1
:100CC0002C483830016821F080510160A869A8B330
:100CD000DBF80010C1F38101022948D00228C9F8CD
:100CE00060A005D000E03AE0FFF734FD054639E0AA
:100CF000FFF730FD064604E0FFF72CFD801B0228BD
:100D00002DD820688001F7D4F5E907010843E96888
:100D10001C4A490802EB0141AA6841EA82110843D2
:100D2000297C40EA0160297D40EA01703860012099
:100D3000C9F86000FFF70EFD054606E015E000BFAC
:100D4000FFF708FD401B022809D820688001F7D56D
:100D50000BE000BFFFF7FEFC401B022802D9032076
:100D6000BDE8F88F20688001F4D40020F8E7012066
:100D7000F6E700000838024000004742800E474274
:100D8000007000400000FFFF10B5401EB0F1807FF2
:100D900001D3012010BD4FF0E02460610F216017E6
:100DA00000F02FFB0020A06107202061002010BD73
:100DB00070B590F83C20012A32D0012480F83C40E4
:100DC000022280F83D2003685A689D6822F0700670
:100DD0000A6832435A60134B02689A4214D0B2F147
:100DE000804F11D0104B9A420ED0104B9A420BD02C
:100DF0000F4B9A4208D00F4B9A4205D00E4B9A42A5
:100E000002D00E4B9A4204D1496825F08003194361
:100E1000916080F83D40002180F83C10084670BD8C
:100E2000022070BD000001400004004000080040A6
:100E3000000C004000040140004001400018004048
:100E400030B587B0044614216846FFF70FFA1649FB
:100E50002068884225D115480025016841F0040129
:100E60000160016801F004010591016841F002018F
:100E700001600068022400F0020005904FF48070C9
:100E80008DE83100CDE9035469460948FFF78EFB30
:100E90000094CDE90145CDE9035469460548FFF7C3
:100EA00085FB07B030BD0000000400403038024030
:100EB000000802400004024070B5044690F83C006F
:100EC0000D4601280DD0012684F83C60022084F8EC
:100ED0003D0042B1042A18D0082A2AD00C2A4DD14C
:100EE00039E0022070BD206800F0C8F920688169EF
:100EF00041F0080181612068816921F0040181616C
:100F0000206881692A69114311E0206800F0E6F940
:100F10002068816941F4006181612068816921F460
:100F200080618161206881692A6941EA02218161C9
:100F300024E0206800F008FA2068C16941F0080147
:100F4000C1612068C16921F00401C1612068C169E3
:100F50002A69114311E0206800F02AFA2068C1696B
:100F600041F40061C1612068C16921F48061C161FF
:100F70002068C1692A6941EA0221C16184F83D60A3
:100F8000002084F83C0070BD10B5040003D094F834
:100F90003D0010B107E0012010BD002084F83C00A6
:100FA000204600F00DF8022084F83D00211D206845
:100FB00000F0F2F8012084F83D00002010BD000090
:100FC00008B500680649884208D10648016841F022
:100FD00002010160006800F00200009008BD0000FE
:100FE000000400404038024010B504460068012269
:100FF00000F036F90B492068884202D00A4988423D
:1010000003D1416C41F4004141642068816801F0E2
:101010000701062903D0016841F0010101600020A9
:1010200010BD00000000014000040140FEE7000088
:101030000D4808B5016841F001010160016801F047
:1010400001010091016841F004010160016801F0B3
:1010500004010091016841F002010160006800F0A4
:101060000200009008BD00003038024010B58AB080
:10107000002407941C2168460894FFF7F7F81B48E2
:101080001949016040F23F11C0E9011440F2E73113
:10109000C0E903148461FFF777FF08B1FFF784FA12
:1010A000079407A911480894FFF782FE08B1FFF7DB
:1010B0007BFA6020CDE900040294082269460B48BF
:1010C0000494FFF7F9FE08B1FFF76EFA0C226946A7
:1010D0000648FFF7F1FE08B1FFF766FA0348FFF78D
:1010E000AFFE0AB010BD0000000400401000002058
:1010F000FEE7FEE770477047FFF732BB10B594B0CC
:1011000034216846FFF7B2F814210DA8FFF7AEF8B6
:1011100018480024016841F080510160006800F027
:10112000805012901448016821F4404141F48041FC
:1011300001600068069400F4404012900220009084
:1011400001200390102004906846FFF77BFC08B153
:1011500072B6FEE70F20CDE90D040F941094002124
:101160000DA81194FFF788FB002801D072B6FEE7A6
:1011700014B010BD403802400070004005480168BE
:1011800041F47001016003494FF00060803908604C
:101190007047000088ED00E0F0B50268254C264D50
:1011A000264E274F274B4FF0804CA04209D0604578
:1011B00007D0A84205D0B04203D0B84201D098422F
:1011C00004D122F0700E4A6842EA0E02A0421BD0FF
:1011D000604519D0A84217D0B04215D0B84213D0FC
:1011E000984211D0184DA8420ED0184DA8420BD0ED
:1011F000174DA84208D0174DA84205D0164DA84259
:1012000002D0164DA84203D122F44075CA682A4381
:101210004D6922F080022A4302608A68C2620A682D
:101220008262A04201D0984201D109690163012183
:101230004161F0BD00000140000400400008004092
:10124000000C004000040140004001400044014007
:101250000048014000180040001C004000200040F1
:1012600010B501F01F030121046A99408C43046208
:10127000016A9A401143016210BD0000F0B5026A94
:1012800022F001020262036A42688469124E24F06D
:1012900073050C682C4323F002058B682B430D4D1E
:1012A000A84201D0B04205D123F00807CB683B43E8
:1012B00023F00403A84201D0B04205D14D6922F4C5
:1012C000407215438A692A434260846149684163D8
:1012D0000362F0BD0000014000040140F0B5026A65
:1012E00022F010020262026A436884690D6824F4E5
:1012F000E64444EA05248D6822F0200242EA051201
:101300000F4D104EA84201D0B04206D1CF6822F056
:10131000800242EA071222F04002A84201D0B04205
:1013200007D14D6923F4406343EA85038D6943EA9D
:10133000850343608461496881630262F0BD0000F7
:101340000000014000040140F0B5026A22F48072FE
:101350000262026A4368C46922F4007224F07305D1
:101360000C68124E2C438D6842EA05220E4DA842AD
:1013700001D0B04206D1CF6822F4006242EA0722CF
:1013800022F48062A84201D0B04207D14D6923F413
:10139000405343EA05138D6943EA05134360C46172
:1013A0004968C1630262F0BD0000014000040140D1
:1013B00030B5026A22F480520262046A4268C3694C
:1013C0000D6823F4E64343EA05238D6824F40054B2
:1013D00044EA0534084DA84202D0084DA84204D181
:1013E0004D6922F4804242EA85124260C361496835
:1013F0000164046230BD00000000014000040140AF
:10140000FEE70907090E002804DB00F1E02080F860
:101410000014704700F00F0000F1E02080F8141D68
:10142000704702E008C8121F08C1002AFAD17047AD
:101430007047002001E001C1121F002AFBD1704754
:101440002DED0C8B9FED488BFFF792F9FFF756FEC1
:10145000FFF7EEFDFFF70AFE08214548FFF7C4FD40
:101460000C214348FFF7C0FD9FED42CB9FED43DBCE
:101470003F4C9FED44AB9FED45BB00BF51EC180BBB
:10148000FEF7A6FF21680746C86353EC182B51EC02
:101490001A0BFEF797FF0E4646EC100B054651EC73
:1014A000100BFEF795FF21680864B0EE4C9AF0EE41
:1014B0006C9A53EC192B51EC180BFEF7A3FF06D2D4
:1014C00053EC1D2B51EC180BFEF7B4FF38D353EC43
:1014D000192B51EC180BFEF7ADFF31D8B0EE498A4D
:1014E000F0EE698AB0EE4A9AF0EE6A9A1CE000BF0C
:1014F00051EC180BFEF76CFF2168C86353EC182BF6
:1015000051EC190BFEF75EFFFEF762FF21680864DD
:10151000B0EE4B0AF0EE6B0A53EC102B51EC180BAB
:10152000FEF750FF41EC180BB0EE4D0AF0EE6D0ADD
:1015300053EC102B51EC180BFEF77CFF9ED8D7E72D
:101540002168CF6346EC105B51EC100BFEF740FFB7
:101550002168086453EC1B2B51EC180BFEF791FE2D
:1015600041EC180B8AE700000000000000C0524068
:10157000100000200000000000405F40000000005C
:10158000000039400000000000C06240B81E85EB3A
:1015900051B89E3F0000000000000000010203045B
:1015A00006070809C415000800000020100000000C
:1015B00022140008D4150008100000204004000088
:1015C00032140008010000001000000000000000BC
:0415D0000024F400FF
:04000005080001C529
:00000001FF
